{
  "address": "0x6aBd11354877bb8bd4f304E5cBc1943195fdBc3c",
  "abi": [
    {
      "inputs": [],
      "stateMutability": "nonpayable",
      "type": "constructor"
    },
    {
      "inputs": [
        {
          "internalType": "address payable",
          "name": "proxy",
          "type": "address"
        },
        {
          "internalType": "address",
          "name": "admin",
          "type": "address"
        }
      ],
      "name": "changeProxyAdmin",
      "outputs": [],
      "stateMutability": "nonpayable",
      "type": "function"
    },
    {
      "inputs": [
        {
          "internalType": "address",
          "name": "proxy",
          "type": "address"
        }
      ],
      "name": "getProxyAdmin",
      "outputs": [
        {
          "internalType": "address",
          "name": "",
          "type": "address"
        }
      ],
      "stateMutability": "view",
      "type": "function"
    },
    {
      "inputs": [
        {
          "internalType": "address",
          "name": "proxy",
          "type": "address"
        }
      ],
      "name": "getProxyImplementation",
      "outputs": [
        {
          "internalType": "address",
          "name": "",
          "type": "address"
        }
      ],
      "stateMutability": "view",
      "type": "function"
    },
    {
      "inputs": [],
      "name": "owner",
      "outputs": [
        {
          "internalType": "address",
          "name": "",
          "type": "address"
        }
      ],
      "stateMutability": "view",
      "type": "function"
    },
    {
      "inputs": [
        {
          "internalType": "address payable",
          "name": "proxy",
          "type": "address"
        },
        {
          "internalType": "address",
          "name": "implementation",
          "type": "address"
        }
      ],
      "name": "upgrade",
      "outputs": [],
      "stateMutability": "nonpayable",
      "type": "function"
    }
  ],
  "transactionHash": "0x846b44915a0864563da29b48a05b1a8736a160304b66b8951252264b5e76bab1",
  "args": [],
  "numDeployments": 1,
  "solcInputHash": "167d9dc5688b50b9b9718493299cb4ac",
  "bytecode": "0x608060405234801561001057600080fd5b50600080546001600160a01b03191633179055610417806100326000396000f3fe608060405234801561001057600080fd5b50600436106100575760003560e01c8063204e1c7a1461005c5780637eff275e1461008b5780638da5cb5b146100a057806399a88ec4146100b3578063f3b7dead146100c6575b600080fd5b61006f61006a366004610338565b6100d9565b6040516001600160a01b03909116815260200160405180910390f35b61009e61009936600461035c565b6101c0565b005b60005461006f906001600160a01b031681565b61009e6100c136600461035c565b610266565b61006f6100d4366004610338565b6102da565b60408051600481526024810182526020810180516001600160e01b0316635c60da1b60e01b1790529051600091829182916001600160a01b0386169161011f9190610395565b600060405180830381855afa9150503d806000811461015a576040519150601f19603f3d011682016040523d82523d6000602084013e61015f565b606091505b5091509150816101a45760405162461bcd60e51b815260206004820152600b60248201526a18d85b1b0819985a5b195960aa1b60448201526064015b60405180910390fd5b808060200190518101906101b891906103c4565b949350505050565b6000546001600160a01b031633146102065760405162461bcd60e51b81526020600482015260096024820152683737ba1037bbb732b960b91b604482015260640161019b565b6040516308f2839760e41b81526001600160a01b038281166004830152831690638f283970906024015b600060405180830381600087803b15801561024a57600080fd5b505af115801561025e573d6000803e3d6000fd5b505050505050565b6000546001600160a01b031633146102ac5760405162461bcd60e51b81526020600482015260096024820152683737ba1037bbb732b960b91b604482015260640161019b565b604051631b2ce7f360e11b81526001600160a01b038281166004830152831690633659cfe690602401610230565b60408051600481526024810182526020810180516001600160e01b03166303e1469160e61b1790529051600091829182916001600160a01b0386169161011f9190610395565b6001600160a01b038116811461033557600080fd5b50565b60006020828403121561034a57600080fd5b813561035581610320565b9392505050565b6000806040838503121561036f57600080fd5b823561037a81610320565b9150602083013561038a81610320565b809150509250929050565b6000825160005b818110156103b6576020818601810151858301520161039c565b506000920191825250919050565b6000602082840312156103d657600080fd5b81516103558161032056fea26469706673582212208b40b68beb686de7f3c20da8389d100039ea498ca714ffabbfb91f60afad0af764736f6c63430008140033",
  "devdoc": {
    "kind": "dev",
    "methods": {},
    "version": 1
  },
  "userdoc": {
    "kind": "user",
    "methods": {},
    "version": 1
  },
  "storageLayout": {
    "storage": [
      {
        "astId": 5598,
        "contract": "contracts/proxy/BridgeContractProxyAdmin.sol:BridgeContractProxyAdmin",
        "label": "owner",
        "offset": 0,
        "slot": "0",
        "type": "t_address"
      }
    ],
    "types": {
      "t_address": {
        "encoding": "inplace",
        "label": "address",
        "numberOfBytes": "20"
      }
    }
  }
}