{
  "address": "0x2BCcfb8837085C65A9d836084486E8B61da92Af8",
  "abi": [
    {
      "inputs": [
        {
          "internalType": "address",
          "name": "target",
          "type": "address"
        }
      ],
      "name": "AddressEmptyCode",
      "type": "error"
    },
    {
      "inputs": [
        {
          "internalType": "address",
          "name": "account",
          "type": "address"
        }
      ],
      "name": "AddressInsufficientBalance",
      "type": "error"
    },
    {
      "inputs": [],
      "name": "ECDSAInvalidSignature",
      "type": "error"
    },
    {
      "inputs": [
        {
          "internalType": "uint256",
          "name": "length",
          "type": "uint256"
        }
      ],
      "name": "ECDSAInvalidSignatureLength",
      "type": "error"
    },
    {
      "inputs": [
        {
          "internalType": "bytes32",
          "name": "s",
          "type": "bytes32"
        }
      ],
      "name": "ECDSAInvalidSignatureS",
      "type": "error"
    },
    {
      "inputs": [],
      "name": "FailedInnerCall",
      "type": "error"
    },
    {
      "inputs": [
        {
          "internalType": "address",
          "name": "token",
          "type": "address"
        }
      ],
      "name": "SafeERC20FailedOperation",
      "type": "error"
    },
    {
      "anonymous": false,
      "inputs": [
        {
          "indexed": true,
          "internalType": "address",
          "name": "sender",
          "type": "address"
        },
        {
          "indexed": false,
          "internalType": "uint256",
          "name": "transactionId",
          "type": "uint256"
        },
        {
          "indexed": false,
          "internalType": "uint256",
          "name": "nonce",
          "type": "uint256"
        },
        {
          "indexed": false,
          "internalType": "address",
          "name": "token",
          "type": "address"
        },
        {
          "indexed": false,
          "internalType": "uint256",
          "name": "amount",
          "type": "uint256"
        },
        {
          "indexed": false,
          "internalType": "uint256",
          "name": "stableCommissionPercent",
          "type": "uint256"
        },
        {
          "indexed": false,
          "internalType": "uint256",
          "name": "gasCommission",
          "type": "uint256"
        },
        {
          "indexed": false,
          "internalType": "string",
          "name": "destinationChain",
          "type": "string"
        },
        {
          "indexed": false,
          "internalType": "string",
          "name": "destinationAddress",
          "type": "string"
        }
      ],
      "name": "BridgeFundsIn",
      "type": "event"
    },
    {
      "anonymous": false,
      "inputs": [
        {
          "indexed": true,
          "internalType": "address",
          "name": "sender",
          "type": "address"
        },
        {
          "indexed": false,
          "internalType": "uint256",
          "name": "transactionId",
          "type": "uint256"
        },
        {
          "indexed": false,
          "internalType": "uint256",
          "name": "nonce",
          "type": "uint256"
        },
        {
          "indexed": false,
          "internalType": "address",
          "name": "token",
          "type": "address"
        },
        {
          "indexed": false,
          "internalType": "uint256",
          "name": "amount",
          "type": "uint256"
        },
        {
          "indexed": false,
          "internalType": "uint256",
          "name": "stableCommissionPercent",
          "type": "uint256"
        },
        {
          "indexed": false,
          "internalType": "uint256",
          "name": "gasCommission",
          "type": "uint256"
        },
        {
          "indexed": false,
          "internalType": "string",
          "name": "destinationChain",
          "type": "string"
        },
        {
          "indexed": false,
          "internalType": "string",
          "name": "destinationAddress",
          "type": "string"
        }
      ],
      "name": "BridgeFundsInBurn",
      "type": "event"
    },
    {
      "anonymous": false,
      "inputs": [
        {
          "indexed": true,
          "internalType": "address",
          "name": "sender",
          "type": "address"
        },
        {
          "indexed": false,
          "internalType": "uint256",
          "name": "transactionId",
          "type": "uint256"
        },
        {
          "indexed": false,
          "internalType": "uint256",
          "name": "nonce",
          "type": "uint256"
        },
        {
          "indexed": false,
          "internalType": "uint256",
          "name": "amount",
          "type": "uint256"
        },
        {
          "indexed": false,
          "internalType": "uint256",
          "name": "stableCommissionPercent",
          "type": "uint256"
        },
        {
          "indexed": false,
          "internalType": "uint256",
          "name": "gasCommission",
          "type": "uint256"
        },
        {
          "indexed": false,
          "internalType": "string",
          "name": "destinationChain",
          "type": "string"
        },
        {
          "indexed": false,
          "internalType": "string",
          "name": "destinationAddress",
          "type": "string"
        }
      ],
      "name": "BridgeFundsInCoin",
      "type": "event"
    },
    {
      "anonymous": false,
      "inputs": [
        {
          "indexed": true,
          "internalType": "address",
          "name": "recipient",
          "type": "address"
        },
        {
          "indexed": false,
          "internalType": "address",
          "name": "token",
          "type": "address"
        },
        {
          "indexed": false,
          "internalType": "uint256",
          "name": "amount",
          "type": "uint256"
        },
        {
          "indexed": false,
          "internalType": "uint256",
          "name": "transactionId",
          "type": "uint256"
        },
        {
          "indexed": false,
          "internalType": "string",
          "name": "sourceChain",
          "type": "string"
        },
        {
          "indexed": false,
          "internalType": "string",
          "name": "sourceAddress",
          "type": "string"
        }
      ],
      "name": "BridgeFundsOut",
      "type": "event"
    },
    {
      "anonymous": false,
      "inputs": [
        {
          "indexed": true,
          "internalType": "address",
          "name": "recipient",
          "type": "address"
        },
        {
          "indexed": false,
          "internalType": "uint256",
          "name": "amount",
          "type": "uint256"
        },
        {
          "indexed": false,
          "internalType": "uint256",
          "name": "transactionId",
          "type": "uint256"
        },
        {
          "indexed": false,
          "internalType": "string",
          "name": "sourceChain",
          "type": "string"
        },
        {
          "indexed": false,
          "internalType": "string",
          "name": "sourceAddress",
          "type": "string"
        }
      ],
      "name": "BridgeFundsOutCoin",
      "type": "event"
    },
    {
      "anonymous": false,
      "inputs": [
        {
          "indexed": true,
          "internalType": "address",
          "name": "recipient",
          "type": "address"
        },
        {
          "indexed": false,
          "internalType": "address",
          "name": "token",
          "type": "address"
        },
        {
          "indexed": false,
          "internalType": "uint256",
          "name": "amount",
          "type": "uint256"
        },
        {
          "indexed": false,
          "internalType": "uint256",
          "name": "transactionId",
          "type": "uint256"
        },
        {
          "indexed": false,
          "internalType": "string",
          "name": "sourceChain",
          "type": "string"
        },
        {
          "indexed": false,
          "internalType": "string",
          "name": "sourceAddress",
          "type": "string"
        }
      ],
      "name": "BridgeFundsOutMint",
      "type": "event"
    },
    {
      "anonymous": false,
      "inputs": [
        {
          "indexed": false,
          "internalType": "uint8",
          "name": "version",
          "type": "uint8"
        }
      ],
      "name": "Initialized",
      "type": "event"
    },
    {
      "anonymous": false,
      "inputs": [
        {
          "indexed": true,
          "internalType": "address",
          "name": "previousOwner",
          "type": "address"
        },
        {
          "indexed": true,
          "internalType": "address",
          "name": "newOwner",
          "type": "address"
        }
      ],
      "name": "OwnershipTransferred",
      "type": "event"
    },
    {
      "anonymous": false,
      "inputs": [
        {
          "indexed": false,
          "internalType": "address",
          "name": "account",
          "type": "address"
        }
      ],
      "name": "Paused",
      "type": "event"
    },
    {
      "anonymous": false,
      "inputs": [
        {
          "indexed": false,
          "internalType": "address",
          "name": "account",
          "type": "address"
        }
      ],
      "name": "Unpaused",
      "type": "event"
    },
    {
      "anonymous": false,
      "inputs": [
        {
          "indexed": true,
          "internalType": "uint256",
          "name": "amount",
          "type": "uint256"
        }
      ],
      "name": "WithdrawCoinCommission",
      "type": "event"
    },
    {
      "anonymous": false,
      "inputs": [
        {
          "indexed": true,
          "internalType": "address",
          "name": "token",
          "type": "address"
        },
        {
          "indexed": false,
          "internalType": "uint256",
          "name": "amount",
          "type": "uint256"
        }
      ],
      "name": "WithdrawCommission",
      "type": "event"
    },
    {
      "inputs": [
        {
          "components": [
            {
              "internalType": "address",
              "name": "token",
              "type": "address"
            },
            {
              "internalType": "uint256",
              "name": "amount",
              "type": "uint256"
            },
            {
              "internalType": "uint256",
              "name": "gasCommission",
              "type": "uint256"
            },
            {
              "internalType": "string",
              "name": "destinationChain",
              "type": "string"
            },
            {
              "internalType": "string",
              "name": "destinationAddress",
              "type": "string"
            },
            {
              "internalType": "uint256",
              "name": "deadline",
              "type": "uint256"
            },
            {
              "internalType": "uint256",
              "name": "nonce",
              "type": "uint256"
            },
            {
              "internalType": "uint256",
              "name": "transactionId",
              "type": "uint256"
            }
          ],
          "internalType": "struct Bridge.BridgeInParams",
          "name": "params",
          "type": "tuple"
        },
        {
          "internalType": "bytes",
          "name": "signature",
          "type": "bytes"
        }
      ],
      "name": "bridgeIn",
      "outputs": [],
      "stateMutability": "nonpayable",
      "type": "function"
    },
    {
      "inputs": [
        {
          "components": [
            {
              "internalType": "address",
              "name": "token",
              "type": "address"
            },
            {
              "internalType": "uint256",
              "name": "amount",
              "type": "uint256"
            },
            {
              "internalType": "uint256",
              "name": "gasCommission",
              "type": "uint256"
            },
            {
              "internalType": "string",
              "name": "destinationChain",
              "type": "string"
            },
            {
              "internalType": "string",
              "name": "destinationAddress",
              "type": "string"
            },
            {
              "internalType": "uint256",
              "name": "deadline",
              "type": "uint256"
            },
            {
              "internalType": "uint256",
              "name": "nonce",
              "type": "uint256"
            },
            {
              "internalType": "uint256",
              "name": "transactionId",
              "type": "uint256"
            }
          ],
          "internalType": "struct Bridge.BridgeInParams",
          "name": "params",
          "type": "tuple"
        },
        {
          "internalType": "bytes",
          "name": "signature",
          "type": "bytes"
        }
      ],
      "name": "bridgeInBurn",
      "outputs": [],
      "stateMutability": "nonpayable",
      "type": "function"
    },
    {
      "inputs": [
        {
          "components": [
            {
              "internalType": "uint256",
              "name": "gasCommission",
              "type": "uint256"
            },
            {
              "internalType": "string",
              "name": "destinationChain",
              "type": "string"
            },
            {
              "internalType": "string",
              "name": "destinationAddress",
              "type": "string"
            },
            {
              "internalType": "uint256",
              "name": "deadline",
              "type": "uint256"
            },
            {
              "internalType": "uint256",
              "name": "nonce",
              "type": "uint256"
            },
            {
              "internalType": "uint256",
              "name": "transactionId",
              "type": "uint256"
            }
          ],
          "internalType": "struct Bridge.BridgeInCoinParams",
          "name": "params",
          "type": "tuple"
        },
        {
          "internalType": "bytes",
          "name": "signature",
          "type": "bytes"
        }
      ],
      "name": "bridgeInCoin",
      "outputs": [],
      "stateMutability": "payable",
      "type": "function"
    },
    {
      "inputs": [
        {
          "internalType": "address",
          "name": "token",
          "type": "address"
        },
        {
          "internalType": "address",
          "name": "recipient",
          "type": "address"
        },
        {
          "internalType": "uint256",
          "name": "amount",
          "type": "uint256"
        },
        {
          "internalType": "uint256",
          "name": "transactionId",
          "type": "uint256"
        },
        {
          "internalType": "string",
          "name": "sourceChain",
          "type": "string"
        },
        {
          "internalType": "string",
          "name": "sourceAddress",
          "type": "string"
        }
      ],
      "name": "bridgeOut",
      "outputs": [],
      "stateMutability": "nonpayable",
      "type": "function"
    },
    {
      "inputs": [
        {
          "internalType": "address payable",
          "name": "recipient",
          "type": "address"
        },
        {
          "internalType": "uint256",
          "name": "amount",
          "type": "uint256"
        },
        {
          "internalType": "uint256",
          "name": "transactionId",
          "type": "uint256"
        },
        {
          "internalType": "string",
          "name": "sourceChain",
          "type": "string"
        },
        {
          "internalType": "string",
          "name": "sourceAddress",
          "type": "string"
        }
      ],
      "name": "bridgeOutCoin",
      "outputs": [],
      "stateMutability": "nonpayable",
      "type": "function"
    },
    {
      "inputs": [
        {
          "internalType": "address",
          "name": "token",
          "type": "address"
        },
        {
          "internalType": "address",
          "name": "recipient",
          "type": "address"
        },
        {
          "internalType": "uint256",
          "name": "amount",
          "type": "uint256"
        },
        {
          "internalType": "uint256",
          "name": "transactionId",
          "type": "uint256"
        },
        {
          "internalType": "string",
          "name": "sourceChain",
          "type": "string"
        },
        {
          "internalType": "string",
          "name": "sourceAddress",
          "type": "string"
        }
      ],
      "name": "bridgeOutMint",
      "outputs": [],
      "stateMutability": "nonpayable",
      "type": "function"
    },
    {
      "inputs": [],
      "name": "getChainId",
      "outputs": [
        {
          "internalType": "uint256",
          "name": "",
          "type": "uint256"
        }
      ],
      "stateMutability": "view",
      "type": "function"
    },
    {
      "inputs": [],
      "name": "getCommissionByCoin",
      "outputs": [
        {
          "internalType": "uint256",
          "name": "",
          "type": "uint256"
        }
      ],
      "stateMutability": "view",
      "type": "function"
    },
    {
      "inputs": [],
      "name": "getCommissionCollector",
      "outputs": [
        {
          "internalType": "address",
          "name": "",
          "type": "address"
        }
      ],
      "stateMutability": "view",
      "type": "function"
    },
    {
      "inputs": [
        {
          "internalType": "address",
          "name": "token",
          "type": "address"
        }
      ],
      "name": "getCommissionPoolAmount",
      "outputs": [
        {
          "internalType": "uint256",
          "name": "",
          "type": "uint256"
        }
      ],
      "stateMutability": "view",
      "type": "function"
    },
    {
      "inputs": [],
      "name": "getContractBalance",
      "outputs": [
        {
          "internalType": "uint256",
          "name": "",
          "type": "uint256"
        }
      ],
      "stateMutability": "view",
      "type": "function"
    },
    {
      "inputs": [],
      "name": "getStableCommissionPercent",
      "outputs": [
        {
          "internalType": "uint256",
          "name": "",
          "type": "uint256"
        }
      ],
      "stateMutability": "view",
      "type": "function"
    },
    {
      "inputs": [
        {
          "internalType": "uint256",
          "name": "amount",
          "type": "uint256"
        },
        {
          "internalType": "uint256",
          "name": "gasCommission",
          "type": "uint256"
        }
      ],
      "name": "getTotalCommission",
      "outputs": [
        {
          "internalType": "uint256",
          "name": "",
          "type": "uint256"
        }
      ],
      "stateMutability": "view",
      "type": "function"
    },
    {
      "inputs": [
        {
          "internalType": "address",
          "name": "signer",
          "type": "address"
        }
      ],
      "name": "initialize",
      "outputs": [],
      "stateMutability": "nonpayable",
      "type": "function"
    },
    {
      "inputs": [],
      "name": "owner",
      "outputs": [
        {
          "internalType": "address",
          "name": "",
          "type": "address"
        }
      ],
      "stateMutability": "view",
      "type": "function"
    },
    {
      "inputs": [],
      "name": "pause",
      "outputs": [],
      "stateMutability": "nonpayable",
      "type": "function"
    },
    {
      "inputs": [],
      "name": "paused",
      "outputs": [
        {
          "internalType": "bool",
          "name": "",
          "type": "bool"
        }
      ],
      "stateMutability": "view",
      "type": "function"
    },
    {
      "inputs": [],
      "name": "renounceOwnership",
      "outputs": [],
      "stateMutability": "view",
      "type": "function"
    },
    {
      "inputs": [
        {
          "internalType": "address",
          "name": "commissionCollector_",
          "type": "address"
        }
      ],
      "name": "setCommissionCollector",
      "outputs": [],
      "stateMutability": "nonpayable",
      "type": "function"
    },
    {
      "inputs": [
        {
          "internalType": "uint32",
          "name": "stableCommissionPercent_",
          "type": "uint32"
        }
      ],
      "name": "setStableCommissionPercent",
      "outputs": [],
      "stateMutability": "nonpayable",
      "type": "function"
    },
    {
      "inputs": [
        {
          "internalType": "address",
          "name": "newOwner",
          "type": "address"
        }
      ],
      "name": "transferOwnership",
      "outputs": [],
      "stateMutability": "nonpayable",
      "type": "function"
    },
    {
      "inputs": [],
      "name": "unpause",
      "outputs": [],
      "stateMutability": "nonpayable",
      "type": "function"
    },
    {
      "inputs": [
        {
          "internalType": "uint256",
          "name": "amount",
          "type": "uint256"
        }
      ],
      "name": "withdrawCoinCommission",
      "outputs": [],
      "stateMutability": "nonpayable",
      "type": "function"
    },
    {
      "inputs": [
        {
          "internalType": "address",
          "name": "token",
          "type": "address"
        },
        {
          "internalType": "uint256",
          "name": "amount",
          "type": "uint256"
        }
      ],
      "name": "withdrawCommission",
      "outputs": [],
      "stateMutability": "nonpayable",
      "type": "function"
    }
  ],
  "transactionHash": "0x1f2c1b90dd5a54774336ad183af5ad5ebed60208824234ce8d86819a40ff953d",
  "args": [],
  "numDeployments": 1,
  "solcInputHash": "8b8fb68b437fa00e9434c98620b3304b",
  "bytecode": "0x60806040526097805463ffffffff60a01b1916601960a41b17905534801561002657600080fd5b50612829806100366000396000f3fe60806040526004361061014b5760003560e01c80637de72f4c116100b6578063c4d66de81161006f578063c4d66de814610370578063cd9523ac14610390578063d7100bed146103b0578063e1224f9a146103c3578063ed150408146103e3578063f2fde38b1461040357600080fd5b80637de72f4c146102c85780638214f590146102dd5780638456cb59146102fd5780638499d420146103125780638da5cb5b14610332578063b9b4b4941461035057600080fd5b80634df7cdd6116101085780634df7cdd61461020b5780635af8a7011461023d5780635c975abb1461025d5780636861745a146102805780636f9fb98a146102a0578063715018a6146102b357600080fd5b80631385131d1461015057806321b15c891461017257806328792ee6146101a35780632e699dfc146101c35780633408e470146101e35780633f4ba83a146101f6575b600080fd5b34801561015c57600080fd5b5061017061016b36600461209f565b610423565b005b34801561017e57600080fd5b50609754600160a01b900463ffffffff165b6040519081526020015b60405180910390f35b3480156101af57600080fd5b506101706101be366004612116565b610541565b3480156101cf57600080fd5b506101906101de3660046121be565b6106a4565b3480156101ef57600080fd5b5046610190565b34801561020257600080fd5b506101706106ca565b34801561021757600080fd5b506098546001600160a01b03165b6040516001600160a01b03909116815260200161019a565b34801561024957600080fd5b506101706102583660046121db565b6106dc565b34801561026957600080fd5b5060335460ff16604051901515815260200161019a565b34801561028c57600080fd5b5061017061029b36600461224d565b610852565b3480156102ac57600080fd5b5047610190565b3480156102bf57600080fd5b506101706108db565b3480156102d457600080fd5b50609b54610190565b3480156102e957600080fd5b506101706102f8366004612116565b610925565b34801561030957600080fd5b50610170610991565b34801561031e57600080fd5b5061017061032d3660046121db565b6109a1565b34801561033e57600080fd5b506065546001600160a01b0316610225565b34801561035c57600080fd5b5061017061036b366004612273565b610a5b565b34801561037c57600080fd5b5061017061038b3660046121be565b610af8565b34801561039c57600080fd5b506101906103ab366004612309565b610c3a565b6101706103be36600461232b565b610c80565b3480156103cf57600080fd5b506101706103de36600461236c565b610d06565b3480156103ef57600080fd5b506101706103fe3660046121be565b610e47565b34801561040f57600080fd5b5061017061041e3660046121be565b610eb1565b6098546001600160a01b0316336001600160a01b031614610479576040518060600160405280602181526020016127d36021913960405162461bcd60e51b815260040161047091906123bc565b60405180910390fd5b80609b5410156104ce57604080518082018252601a81527f416d6f756e74457863656564436f6d6d697373696f6e506f6f6c0000000000006020820152905162461bcd60e51b815261047091906004016123bc565b80609b60008282546104e09190612405565b9091555050604051339082156108fc029083906000818181858888f19350505050158015610512573d6000803e3d6000fd5b5060405181907f9989afeb5f63d40ee864a1347292ce5e2a278497a9a592e51a99d8b79052420e90600090a250565b610549610f2a565b6001600160a01b03871661059c576040805180820182526017815276496e76616c6964526563697069656e744164647265737360481b6020820152905162461bcd60e51b815261047091906004016123bc565b6001600160a01b0388166105eb576040805180820182526013815272496e76616c6964546f6b656e4164647265737360681b6020820152905162461bcd60e51b815261047091906004016123bc565b6040516340c10f1960e01b81526001600160a01b038881166004830152602482018890528916906340c10f1990604401600060405180830381600087803b15801561063557600080fd5b505af1158015610649573d6000803e3d6000fd5b50505050866001600160a01b03167f3c3b34873d51d27aba0e363dab2eba8b702f5a8cc7bc3c5705b75e9f270079cc898888888888886040516106929796959493929190612441565b60405180910390a25050505050505050565b60006106ae610f2a565b506001600160a01b03166000908152609a602052604090205490565b6106d2610f2a565b6106da610f84565b565b6106e4610fd6565b6106ef83838361101c565b600061070384602001358560400135610c3a565b905061072933308361071860208901896121be565b6001600160a01b0316929190611367565b61073660208501856121be565b6001600160a01b0316639dc29fac33610753846020890135612405565b6040516001600160e01b031960e085901b1681526001600160a01b0390921660048301526024820152604401600060405180830381600087803b15801561079957600080fd5b505af11580156107ad573d6000803e3d6000fd5b505050506107b83390565b6001600160a01b03167f27f40aba996bfcfcd2b3c1190360d9aaf52516f05935f847817f58e0181d1b5960e086013560c08701356107f960208901896121be565b60975460208a013590600160a01b900463ffffffff1660408b013561082160608d018d612482565b61082e60808f018f612482565b6040516108449a999897969594939291906124c9565b60405180910390a250505050565b61085a610f2a565b61232863ffffffff821611156108b557604080518082018252601e81527f496e76616c6964537461626c65436f6d6d697373696f6e50657263656e7400006020820152905162461bcd60e51b815261047091906004016123bc565b6097805463ffffffff909216600160a01b0263ffffffff60a01b19909216919091179055565b6108e3610f2a565b6040805180820182526014815273496e76616c69645369676e65724164647265737360601b6020820152905162461bcd60e51b815261047091906004016123bc565b61092d610f2a565b6109388888886113d4565b61094c6001600160a01b038916888861155d565b866001600160a01b03167f49d702ae53b5ebfb2f512df63324a7d1915a152a6faacf2c29a64b7740441ed5898888888888886040516106929796959493929190612441565b610999610f2a565b6106da611593565b6109a9610fd6565b6109b483838361101c565b6109ca33306020860180359061071890886121be565b337f2bd14b01f37c96fbb9e5430d39027b352773ca66a9095668815414a26167ab6e60e085013560c0860135610a0360208801886121be565b609754602089013590600160a01b900463ffffffff1660408a0135610a2b60608c018c612482565b610a3860808e018e612482565b604051610a4e9a999897969594939291906124c9565b60405180910390a2505050565b610a63610f2a565b610a6d87876115d0565b6040516001600160a01b0388169087156108fc029088906000818181858888f19350505050158015610aa3573d6000803e3d6000fd5b50866001600160a01b03167f07f403179767502858c5769b97326e04e65595cc2e3a6739d1a1641d2c8b7b60878787878787604051610ae796959493929190612536565b60405180910390a250505050505050565b600054610100900460ff1615808015610b185750600054600160ff909116105b80610b325750303b158015610b32575060005460ff166001145b610b955760405162461bcd60e51b815260206004820152602e60248201527f496e697469616c697a61626c653a20636f6e747261637420697320616c72656160448201526d191e481a5b9a5d1a585b1a5e995960921b6064820152608401610470565b6000805460ff191660011790558015610bb8576000805461ff0019166101001790555b610bc0611683565b610bc86116b2565b610bd133610eb1565b610bda826116e1565b6097805463ffffffff60a01b1916601960a41b1790558015610c36576000805461ff0019169055604051600181527f7f26b83ff96e1f2b6a682f133852f6798a09c465da95921460cefb38474024989060200160405180910390a15b5050565b609754600090819061271090610c5d90600160a01b900463ffffffff1686612576565b610c67919061258d565b90506000610c7584836125af565b925050505b92915050565b610c88610fd6565b610c9383838361177a565b60975433907fd4973f9bba677b14e99c7450f2f7957cf0caba907b61b1725c6630a7c1e89f469060a0860135906080870135903490600160a01b900463ffffffff168835610ce460208b018b612482565b610cf160408d018d612482565b604051610a4e999897969594939291906125c2565b6098546001600160a01b0316336001600160a01b031614610d53576040518060600160405280602181526020016127d36021913960405162461bcd60e51b815260040161047091906123bc565b6001600160a01b0382166000908152609a6020526040902054811115610dbe57604080518082018252601a81527f416d6f756e74457863656564436f6d6d697373696f6e506f6f6c0000000000006020820152905162461bcd60e51b815261047091906004016123bc565b6001600160a01b0382166000908152609a602052604081208054839290610de6908490612405565b90915550610e0090506001600160a01b038316338361155d565b816001600160a01b03167f2a016beab1c9536945a8f4c51b734f24f9d1458b765600efdabb6a3c52251e7582604051610e3b91815260200190565b60405180910390a25050565b610e4f610f2a565b6001600160a01b038116610e8f576040518060600160405280602181526020016127d36021913960405162461bcd60e51b815260040161047091906123bc565b609880546001600160a01b0319166001600160a01b0392909216919091179055565b610eb9610f2a565b6001600160a01b038116610f1e5760405162461bcd60e51b815260206004820152602660248201527f4f776e61626c653a206e6577206f776e657220697320746865207a65726f206160448201526564647265737360d01b6064820152608401610470565b610f2781611a0c565b50565b6065546001600160a01b031633146106da5760405162461bcd60e51b815260206004820181905260248201527f4f776e61626c653a2063616c6c6572206973206e6f7420746865206f776e65726044820152606401610470565b610f8c611a5e565b6033805460ff191690557f5db9ee0a495bf2e6ff9c91a7834c1ba4fdd244a5e8aa4e537bd38aeae4b073aa335b6040516001600160a01b03909116815260200160405180910390a1565b60335460ff16156106da5760405162461bcd60e51b815260206004820152601060248201526f14185d5cd8589b194e881c185d5cd95960821b6044820152606401610470565b600061102b60208501856121be565b6001600160a01b03160361107a576040805180820182526013815272496e76616c6964546f6b656e4164647265737360681b6020820152905162461bcd60e51b815261047091906004016123bc565b6110876080840184612482565b90506000036110d7576040805180820182526019815278496e76616c696444657374696e6174696f6e4164647265737360381b6020820152905162461bcd60e51b815261047091906004016123bc565b6110e46060840184612482565b905060000361113257604080518082018252601781527624b73b30b634b22232b9ba34b730ba34b7b721b430b4b760491b6020820152905162461bcd60e51b815261047091906004016123bc565b600061114684602001358560400135610c3a565b90508360200135811061119e57604080518082018252601b81527f436f6d6d697373696f6e477265617465725468616e416d6f756e7400000000006020820152905162461bcd60e51b815261047091906004016123bc565b60c084013560009081526099602052604090205460ff16156111fc576040805180820182526014815273416c7265616479557365645369676e617475726560601b6020820152905162461bcd60e51b815261047091906004016123bc565b8360a0013542111561124657604080518082018252601081526f457870697265645369676e617475726560801b6020820152905162461bcd60e51b815261047091906004016123bc565b6112fc333061125860208801886121be565b6020880135604089013561126f60608b018b612482565b8080601f0160208091040260200160405190810160405280939291908181526020018383808284376000920191909152506112b19250505060808c018c612482565b8080601f01602080910402602001604051908101604052809392919081815260200183838082843760009201919091525050505060a08c013560c08d013560e08e0135468e8e611aa7565b60c084013560009081526099602090815260408220805460ff191660011790558291609a9161132d908801886121be565b6001600160a01b03166001600160a01b03168152602001908152602001600020600082825461135c91906125af565b909155505050505050565b6040516001600160a01b0384811660248301528381166044830152606482018390526113ce9186918216906323b872dd906084015b604051602081830303815290604052915060e01b6020820180516001600160e01b038381831617835250505050611b1f565b50505050565b6001600160a01b038216611427576040805180820182526017815276496e76616c6964526563697069656e744164647265737360481b6020820152905162461bcd60e51b815261047091906004016123bc565b6001600160a01b038316611476576040805180820182526013815272496e76616c6964546f6b656e4164647265737360681b6020820152905162461bcd60e51b815261047091906004016123bc565b6040516370a0823160e01b81523060048201526000906001600160a01b038516906370a0823190602401602060405180830381865afa1580156114bd573d6000803e3d6000fd5b505050506040513d601f19601f820116820180604052508101906114e1919061260d565b6001600160a01b0385166000908152609a6020526040812054919250906115089083612405565b905080831115611556576040805180820182526016815275105b5bdd5b9d115e18d95959109c9a5919d9541bdbdb60521b6020820152905162461bcd60e51b815261047091906004016123bc565b5050505050565b6040516001600160a01b0383811660248301526044820183905261158e91859182169063a9059cbb9060640161139c565b505050565b61159b610fd6565b6033805460ff191660011790557f62e78cea01bee320cd4e420270b5ea74000d11b0c9f74754ebdbfc544b05a258610fb93390565b6001600160a01b038216611623576040805180820182526017815276496e76616c6964526563697069656e744164647265737360481b6020820152905162461bcd60e51b815261047091906004016123bc565b609b5447906000906116359083612405565b9050808311156113ce576040805180820182526016815275105b5bdd5b9d115e18d95959109c9a5919d9541bdbdb60521b6020820152905162461bcd60e51b815261047091906004016123bc565b600054610100900460ff166116aa5760405162461bcd60e51b815260040161047090612626565b6106da611b82565b600054610100900460ff166116d95760405162461bcd60e51b815260040161047090612626565b6106da611bb5565b600054610100900460ff166117085760405162461bcd60e51b815260040161047090612626565b6001600160a01b038116611758576040805180820182526014815273496e76616c69645369676e65724164647265737360601b6020820152905162461bcd60e51b815261047091906004016123bc565b609780546001600160a01b0319166001600160a01b0392909216919091179055565b6117876040840184612482565b90506000036117d7576040805180820182526019815278496e76616c696444657374696e6174696f6e4164647265737360381b6020820152905162461bcd60e51b815261047091906004016123bc565b6117e46020840184612482565b905060000361183257604080518082018252601781527624b73b30b634b22232b9ba34b730ba34b7b721b430b4b760491b6020820152905162461bcd60e51b815261047091906004016123bc565b600061183f348535610c3a565b905034811061189357604080518082018252601b81527f436f6d6d697373696f6e477265617465725468616e416d6f756e7400000000006020820152905162461bcd60e51b815261047091906004016123bc565b608084013560009081526099602052604090205460ff16156118f1576040805180820182526014815273416c7265616479557365645369676e617475726560601b6020820152905162461bcd60e51b815261047091906004016123bc565b836060013542111561193b57604080518082018252601081526f457870697265645369676e617475726560801b6020820152905162461bcd60e51b815261047091906004016123bc565b6119dc3330863561194f6020890189612482565b8080601f0160208091040260200160405190810160405280939291908181526020018383808284376000920191909152506119919250505060408a018a612482565b8080601f01602080910402602001604051908101604052809392919081815260200183838082843760009201919091525050505060608a013560808b013560a08c0135468c8c611be5565b60808401356000908152609960205260408120805460ff19166001179055609b805483929061135c9084906125af565b606580546001600160a01b038381166001600160a01b0319831681179093556040519116919082907f8be0079c531659141344cd1fd0a4f28419497f9722a3daafe3b4186f6b6457e090600090a35050565b60335460ff166106da5760405162461bcd60e51b815260206004820152601460248201527314185d5cd8589b194e881b9bdd081c185d5cd95960621b6044820152606401610470565b609754611ad1906001600160a01b0316611aca8f8f8f8f8f8f8f8f8f8f8f611c52565b8484611cd5565b611b105760405162461bcd60e51b815260206004820152601060248201526f496e76616c69645369676e617475726560801b6044820152606401610470565b50505050505050505050505050565b6000611b346001600160a01b03841683611d35565b90508051600014158015611b59575080806020019051810190611b579190612671565b155b1561158e57604051635274afe760e01b81526001600160a01b0384166004820152602401610470565b600054610100900460ff16611ba95760405162461bcd60e51b815260040161047090612626565b6033805460ff19169055565b600054610100900460ff16611bdc5760405162461bcd60e51b815260040161047090612626565b6106da33611a0c565b609754611c06906001600160a01b0316611aca8d8d8d8d8d8d8d8d8d611d4a565b611c455760405162461bcd60e51b815260206004820152601060248201526f496e76616c69645369676e617475726560801b6044820152606401610470565b5050505050505050505050565b6000611cc58c8c8c8c8c8c8c8c8c8c8c604051602001611c7c9b9a99989796959493929190612693565b604051602081830303815290604052805190602001207f19457468657265756d205369676e6564204d6573736167653a0a3332000000006000908152601c91909152603c902090565b9c9b505050505050505050505050565b6000611d178484848080601f016020809104026020016040519081016040528093929190818152602001838380828437600092019190915250611d7e92505050565b6001600160a01b0316856001600160a01b0316149050949350505050565b6060611d4383836000611da8565b9392505050565b6000611d708a8a8a8a8a8a8a8a8a604051602001611c7c99989796959493929190612723565b9a9950505050505050505050565b600080600080611d8e8686611e45565b925092509250611d9e8282611e92565b5090949350505050565b606081471015611dcd5760405163cd78605960e01b8152306004820152602401610470565b600080856001600160a01b03168486604051611de991906127a0565b60006040518083038185875af1925050503d8060008114611e26576040519150601f19603f3d011682016040523d82523d6000602084013e611e2b565b606091505b5091509150611e3b868383611f4b565b9695505050505050565b60008060008351604103611e7f5760208401516040850151606086015160001a611e7188828585611fa7565b955095509550505050611e8b565b50508151600091506002905b9250925092565b6000826003811115611ea657611ea66127bc565b03611eaf575050565b6001826003811115611ec357611ec36127bc565b03611ee15760405163f645eedf60e01b815260040160405180910390fd5b6002826003811115611ef557611ef56127bc565b03611f165760405163fce698f760e01b815260048101829052602401610470565b6003826003811115611f2a57611f2a6127bc565b03610c36576040516335e2f38360e21b815260048101829052602401610470565b606082611f6057611f5b82612076565b611d43565b8151158015611f7757506001600160a01b0384163b155b15611fa057604051639996b31560e01b81526001600160a01b0385166004820152602401610470565b5080611d43565b600080807f7fffffffffffffffffffffffffffffff5d576e7357a4501ddfe92f46681b20a0841115611fe2575060009150600390508261206c565b604080516000808252602082018084528a905260ff891692820192909252606081018790526080810186905260019060a0016020604051602081039080840390855afa158015612036573d6000803e3d6000fd5b5050604051601f1901519150506001600160a01b0381166120625750600092506001915082905061206c565b9250600091508190505b9450945094915050565b8051156120865780518082602001fd5b604051630a12f52160e11b815260040160405180910390fd5b6000602082840312156120b157600080fd5b5035919050565b6001600160a01b0381168114610f2757600080fd5b60008083601f8401126120df57600080fd5b50813567ffffffffffffffff8111156120f757600080fd5b60208301915083602082850101111561210f57600080fd5b9250929050565b60008060008060008060008060c0898b03121561213257600080fd5b883561213d816120b8565b9750602089013561214d816120b8565b96506040890135955060608901359450608089013567ffffffffffffffff8082111561217857600080fd5b6121848c838d016120cd565b909650945060a08b013591508082111561219d57600080fd5b506121aa8b828c016120cd565b999c989b5096995094979396929594505050565b6000602082840312156121d057600080fd5b8135611d43816120b8565b6000806000604084860312156121f057600080fd5b833567ffffffffffffffff8082111561220857600080fd5b90850190610100828803121561221d57600080fd5b9093506020850135908082111561223357600080fd5b50612240868287016120cd565b9497909650939450505050565b60006020828403121561225f57600080fd5b813563ffffffff81168114611d4357600080fd5b600080600080600080600060a0888a03121561228e57600080fd5b8735612299816120b8565b96506020880135955060408801359450606088013567ffffffffffffffff808211156122c457600080fd5b6122d08b838c016120cd565b909650945060808a01359150808211156122e957600080fd5b506122f68a828b016120cd565b989b979a50959850939692959293505050565b6000806040838503121561231c57600080fd5b50508035926020909101359150565b60008060006040848603121561234057600080fd5b833567ffffffffffffffff8082111561235857600080fd5b9085019060c0828803121561221d57600080fd5b6000806040838503121561237f57600080fd5b823561238a816120b8565b946020939093013593505050565b60005b838110156123b357818101518382015260200161239b565b50506000910152565b60208152600082518060208401526123db816040850160208701612398565b601f01601f19169190910160400192915050565b634e487b7160e01b600052601160045260246000fd5b81810381811115610c7a57610c7a6123ef565b81835281816020850137506000828201602090810191909152601f909101601f19169091010190565b60018060a01b038816815286602082015285604082015260a06060820152600061246f60a083018688612418565b8281036080840152611d70818587612418565b6000808335601e1984360301811261249957600080fd5b83018035915067ffffffffffffffff8211156124b457600080fd5b60200191503681900382131561210f57600080fd5b60006101008c83528b602084015260018060a01b038b16604084015289606084015263ffffffff891660808401528760a08401528060c08401526125108184018789612418565b905082810360e0840152612525818587612418565b9d9c50505050505050505050505050565b868152856020820152608060408201526000612556608083018688612418565b8281036060840152612569818587612418565b9998505050505050505050565b8082028115828204841417610c7a57610c7a6123ef565b6000826125aa57634e487b7160e01b600052601260045260246000fd5b500490565b80820180821115610c7a57610c7a6123ef565b89815288602082015287604082015263ffffffff8716606082015285608082015260e060a082015260006125fa60e083018688612418565b82810360c0840152611cc5818587612418565b60006020828403121561261f57600080fd5b5051919050565b6020808252602b908201527f496e697469616c697a61626c653a20636f6e7472616374206973206e6f74206960408201526a6e697469616c697a696e6760a81b606082015260800190565b60006020828403121561268357600080fd5b81518015158114611d4357600080fd5b60006bffffffffffffffffffffffff19808e60601b168352808d60601b166014840152808c60601b1660288401525089603c83015288605c83015287516126e181607c850160208c01612398565b8751908301906126f881607c840160208c01612398565b01607c8101969096525050609c84019290925260bc83015260dc82015260fc01979650505050505050565b60006bffffffffffffffffffffffff19808c60601b168352808b60601b166014840152508860288301528751612760816048850160208c01612398565b875190830190612777816048840160208c01612398565b01604881019690965250506068840192909252608883015260a882015260c80195945050505050565b600082516127b2818460208701612398565b9190910192915050565b634e487b7160e01b600052602160045260246000fdfe496e76616c6964436f6d6d697373696f6e436f6c6c6563746f7241646472657373a26469706673582212209a237a4e625ca61a42013bf183135555733c06527a4678f830b132cbe14ae6ea64736f6c63430008140033",
  "devdoc": {
    "errors": {
      "AddressEmptyCode(address)": [
        {
          "details": "There's no code at `target` (it is not a contract)."
        }
      ],
      "AddressInsufficientBalance(address)": [
        {
          "details": "The ETH balance of the account is not enough to perform the operation."
        }
      ],
      "ECDSAInvalidSignature()": [
        {
          "details": "The signature derives the `address(0)`."
        }
      ],
      "ECDSAInvalidSignatureLength(uint256)": [
        {
          "details": "The signature has an invalid length."
        }
      ],
      "ECDSAInvalidSignatureS(bytes32)": [
        {
          "details": "The signature has an S value that is in the upper half order."
        }
      ],
      "FailedInnerCall()": [
        {
          "details": "A call to an address target failed. The target may have reverted."
        }
      ],
      "SafeERC20FailedOperation(address)": [
        {
          "details": "An operation with an ERC20 token failed."
        }
      ]
    },
    "events": {
      "BridgeFundsIn(address,uint256,uint256,address,uint256,uint256,uint256,string,string)": {
        "params": {
          "amount": "amount of this token",
          "destinationAddress": "From what address(in the above chain) we transfer to the recipient",
          "destinationChain": "From what chain we transfer to the recipient",
          "gasCommission": "Gas commission on the destination chain which is actual when this event fired.",
          "nonce": "classic nonce parameter to track unique transaction",
          "sender": "address who deposit tokens to the bridge",
          "stableCommissionPercent": "Commission percent which is actual on the moment when this event fired.",
          "token": "token we deposit to the bridge"
        }
      },
      "BridgeFundsInBurn(address,uint256,uint256,address,uint256,uint256,uint256,string,string)": {
        "params": {
          "amount": "amount of this token",
          "destinationAddress": "From what address(in the above chain) we transfer to the recipient",
          "destinationChain": "From what chain we transfer to the recipient",
          "gasCommission": "Gas commission on the destination chain which is actual when this event fired.",
          "nonce": "classic nonce parameter to track unique transaction",
          "sender": "address who deposit tokens to the bridge and from which address we burn these tokens.",
          "stableCommissionPercent": "Commission percent which is actual on the moment when this event fired.",
          "token": "token we deposit to the bridge and burn it"
        }
      },
      "BridgeFundsInCoin(address,uint256,uint256,uint256,uint256,uint256,string,string)": {
        "params": {
          "amount": "amount of coin",
          "destinationAddress": "From what address(in the above chain) we transfer to the recipient",
          "destinationChain": "From what chain we transfer to the recipient",
          "gasCommission": "Gas commission on the destination chain which is actual when this event fired.",
          "nonce": "classic nonce parameter to track unique transaction",
          "sender": "address who deposit coin to the bridge",
          "stableCommissionPercent": "Commission percent which is actual on the moment when this event fired."
        }
      },
      "BridgeFundsOut(address,address,uint256,uint256,string,string)": {
        "params": {
          "amount": "amount of this token",
          "recipient": "recepient of the tokens",
          "sourceAddress": "From what address(in the chain mentioned above) we transfer to the recipient",
          "sourceChain": "From what chain we transfer to the recipient",
          "token": "token we fund out from the bridge",
          "transactionId": "heper parameter to track"
        }
      },
      "BridgeFundsOutCoin(address,uint256,uint256,string,string)": {
        "params": {
          "amount": "amount of coin",
          "recipient": "recepient of the tokens",
          "sourceAddress": "From what address(in the chain mentioned above) we transfer to the recipient",
          "sourceChain": "From what chain we transfer to the recipient",
          "transactionId": "heper parameter to track"
        }
      },
      "BridgeFundsOutMint(address,address,uint256,uint256,string,string)": {
        "params": {
          "amount": "amount of minted tokens",
          "recipient": "recepient of the tokens on which we mint these tokens.",
          "sourceAddress": "From what address(in the chain mentioned above) we transfer to the recipient",
          "sourceChain": "From what chain we transfer to the recipient",
          "token": "token we fund out from the bridge",
          "transactionId": "heper parameter to track"
        }
      },
      "Initialized(uint8)": {
        "details": "Triggered when the contract has been initialized or reinitialized."
      },
      "Paused(address)": {
        "details": "Emitted when the pause is triggered by `account`."
      },
      "Unpaused(address)": {
        "details": "Emitted when the pause is lifted by `account`."
      },
      "WithdrawCoinCommission(uint256)": {
        "params": {
          "amount": "amount of coin"
        }
      },
      "WithdrawCommission(address,uint256)": {
        "params": {
          "amount": "amount of this token",
          "token": "token we withdraw from the commission pool"
        }
      }
    },
    "kind": "dev",
    "methods": {
      "bridgeIn((address,uint256,uint256,string,string,uint256,uint256,uint256),bytes)": {
        "details": "Deposit tokens on the bridge to transfer them onto another chain"
      },
      "bridgeInBurn((address,uint256,uint256,string,string,uint256,uint256,uint256),bytes)": {
        "details": "Deposit tokens on the bridge to transfer them onto another chain"
      },
      "bridgeInCoin((uint256,string,string,uint256,uint256,uint256),bytes)": {
        "details": "Deposit coin on the bridge to transfer them onto another chain"
      },
      "bridgeOut(address,address,uint256,uint256,string,string)": {
        "params": {
          "amount": "Token amount",
          "recipient": "Recipient address",
          "sourceAddress": "From what address(in the chain mentioned above) we transfer to the recipient",
          "sourceChain": "From what chain we transfer to the recipient",
          "token": "Token address",
          "transactionId": "ID of the transaction - helper parameter"
        }
      },
      "bridgeOutCoin(address,uint256,uint256,string,string)": {
        "params": {
          "amount": "Coin amount",
          "recipient": "Recipient address",
          "sourceAddress": "From what address(in the chain mentioned above) we transfer to the recipient",
          "sourceChain": "From what chain we transfer to the recipient",
          "transactionId": "ID of the transaction - helper parameter"
        }
      },
      "bridgeOutMint(address,address,uint256,uint256,string,string)": {
        "params": {
          "amount": "Token amount",
          "recipient": "Recipient address on which we mint tokens",
          "sourceAddress": "From what address(in the chain mentioned above) we transfer to the recipient",
          "sourceChain": "From what chain we transfer to the recipient",
          "token": "Token address",
          "transactionId": "ID of the transaction - helper parameter"
        }
      },
      "getCommissionByCoin()": {
        "returns": {
          "_0": "commission collector address"
        }
      },
      "getCommissionCollector()": {
        "returns": {
          "_0": "commission collector address"
        }
      },
      "getCommissionPoolAmount(address)": {
        "params": {
          "token": "Specified token"
        },
        "returns": {
          "_0": "amount of collected commission"
        }
      },
      "getStableCommissionPercent()": {
        "returns": {
          "_0": "stable commission percent"
        }
      },
      "getTotalCommission(uint256,uint256)": {
        "params": {
          "amount": "Token amount",
          "gasCommission": "Manual gasCommission"
        },
        "returns": {
          "_0": "total commission user should pay for transfer"
        }
      },
      "owner()": {
        "details": "Returns the address of the current owner."
      },
      "paused()": {
        "details": "Returns true if the contract is paused, and false otherwise."
      },
      "setCommissionCollector(address)": {
        "params": {
          "commissionCollector_": "address"
        }
      },
      "setStableCommissionPercent(uint32)": {
        "params": {
          "stableCommissionPercent_": "percent"
        }
      },
      "transferOwnership(address)": {
        "details": "Transfers ownership of the contract to a new account (`newOwner`). Can only be called by the current owner."
      },
      "withdrawCoinCommission(uint256)": {
        "params": {
          "amount": "Coin amount"
        }
      },
      "withdrawCommission(address,uint256)": {
        "params": {
          "amount": "Token amount",
          "token": "Token address"
        }
      }
    },
    "version": 1
  },
  "userdoc": {
    "kind": "user",
    "methods": {
      "bridgeIn((address,uint256,uint256,string,string,uint256,uint256,uint256),bytes)": {
        "notice": "Deposit tokens on the bridge to transfer them onto another chain"
      },
      "bridgeInBurn((address,uint256,uint256,string,string,uint256,uint256,uint256),bytes)": {
        "notice": "Deposit tokens on the bridge to transfer them onto another chain. Burn these tokens to mint them on another chain eventually."
      },
      "bridgeInCoin((uint256,string,string,uint256,uint256,uint256),bytes)": {
        "notice": "Deposit coin on the bridge to transfer them onto another chain"
      },
      "bridgeOut(address,address,uint256,uint256,string,string)": {
        "notice": "Withdraw tokens from the bridge. Can be initiated only by the owner"
      },
      "bridgeOutCoin(address,uint256,uint256,string,string)": {
        "notice": "Withdraw coin from the bridge. Can be initiated only by the owner"
      },
      "bridgeOutMint(address,address,uint256,uint256,string,string)": {
        "notice": "Withdraw tokens from the bridge - mint them to the address. Can be initiated only by the owner"
      },
      "getCommissionByCoin()": {
        "notice": "Get commission collector address"
      },
      "getCommissionCollector()": {
        "notice": "Get commission collector address"
      },
      "getCommissionPoolAmount(address)": {
        "notice": "Get amount of collected commission by the specified token."
      },
      "getStableCommissionPercent()": {
        "notice": "Get stable commission percent which is used to calculate static commission"
      },
      "getTotalCommission(uint256,uint256)": {
        "notice": "Claculate total commission: stable commission percent + gasCommission"
      },
      "pause()": {
        "notice": "Stop all contract functionality allowed to the user"
      },
      "renounceOwnership()": {
        "notice": "Block renounce ownership functionality"
      },
      "setCommissionCollector(address)": {
        "notice": "Set commission collector address"
      },
      "setStableCommissionPercent(uint32)": {
        "notice": "Set stable commission percent which is used to calculate static commission Allowed only for onwer"
      },
      "unpause()": {
        "notice": "Resume all contract functionality allowed to the user"
      },
      "withdrawCoinCommission(uint256)": {
        "notice": "Withdraw coin commission from the collected pool by the specified token. This way we do not affect user deposits as long as commission pool collected separately"
      },
      "withdrawCommission(address,uint256)": {
        "notice": "Withdraw commission from the collected pool by the specified token. This way we do not affect user deposits as long as commission pool collected separately"
      }
    },
    "version": 1
  },
  "storageLayout": {
    "storage": [
      {
        "astId": 139,
        "contract": "contracts/Bridge.sol:Bridge",
        "label": "_initialized",
        "offset": 0,
        "slot": "0",
        "type": "t_uint8"
      },
      {
        "astId": 142,
        "contract": "contracts/Bridge.sol:Bridge",
        "label": "_initializing",
        "offset": 1,
        "slot": "0",
        "type": "t_bool"
      },
      {
        "astId": 809,
        "contract": "contracts/Bridge.sol:Bridge",
        "label": "__gap",
        "offset": 0,
        "slot": "1",
        "type": "t_array(t_uint256)50_storage"
      },
      {
        "astId": 323,
        "contract": "contracts/Bridge.sol:Bridge",
        "label": "_paused",
        "offset": 0,
        "slot": "51",
        "type": "t_bool"
      },
      {
        "astId": 428,
        "contract": "contracts/Bridge.sol:Bridge",
        "label": "__gap",
        "offset": 0,
        "slot": "52",
        "type": "t_array(t_uint256)49_storage"
      },
      {
        "astId": 11,
        "contract": "contracts/Bridge.sol:Bridge",
        "label": "_owner",
        "offset": 0,
        "slot": "101",
        "type": "t_address"
      },
      {
        "astId": 131,
        "contract": "contracts/Bridge.sol:Bridge",
        "label": "__gap",
        "offset": 0,
        "slot": "102",
        "type": "t_array(t_uint256)49_storage"
      },
      {
        "astId": 5630,
        "contract": "contracts/Bridge.sol:Bridge",
        "label": "_signerAddress",
        "offset": 0,
        "slot": "151",
        "type": "t_address"
      },
      {
        "astId": 4376,
        "contract": "contracts/Bridge.sol:Bridge",
        "label": "_stableCommissionPercent",
        "offset": 20,
        "slot": "151",
        "type": "t_uint32"
      },
      {
        "astId": 4378,
        "contract": "contracts/Bridge.sol:Bridge",
        "label": "_commissionCollector",
        "offset": 0,
        "slot": "152",
        "type": "t_address"
      },
      {
        "astId": 4382,
        "contract": "contracts/Bridge.sol:Bridge",
        "label": "_usedNonces",
        "offset": 0,
        "slot": "153",
        "type": "t_mapping(t_uint256,t_bool)"
      },
      {
        "astId": 4386,
        "contract": "contracts/Bridge.sol:Bridge",
        "label": "_commissionPools",
        "offset": 0,
        "slot": "154",
        "type": "t_mapping(t_address,t_uint256)"
      },
      {
        "astId": 4388,
        "contract": "contracts/Bridge.sol:Bridge",
        "label": "_commissionByCoin",
        "offset": 0,
        "slot": "155",
        "type": "t_uint256"
      }
    ],
    "types": {
      "t_address": {
        "encoding": "inplace",
        "label": "address",
        "numberOfBytes": "20"
      },
      "t_array(t_uint256)49_storage": {
        "base": "t_uint256",
        "encoding": "inplace",
        "label": "uint256[49]",
        "numberOfBytes": "1568"
      },
      "t_array(t_uint256)50_storage": {
        "base": "t_uint256",
        "encoding": "inplace",
        "label": "uint256[50]",
        "numberOfBytes": "1600"
      },
      "t_bool": {
        "encoding": "inplace",
        "label": "bool",
        "numberOfBytes": "1"
      },
      "t_mapping(t_address,t_uint256)": {
        "encoding": "mapping",
        "key": "t_address",
        "label": "mapping(address => uint256)",
        "numberOfBytes": "32",
        "value": "t_uint256"
      },
      "t_mapping(t_uint256,t_bool)": {
        "encoding": "mapping",
        "key": "t_uint256",
        "label": "mapping(uint256 => bool)",
        "numberOfBytes": "32",
        "value": "t_bool"
      },
      "t_uint256": {
        "encoding": "inplace",
        "label": "uint256",
        "numberOfBytes": "32"
      },
      "t_uint32": {
        "encoding": "inplace",
        "label": "uint32",
        "numberOfBytes": "4"
      },
      "t_uint8": {
        "encoding": "inplace",
        "label": "uint8",
        "numberOfBytes": "1"
      }
    }
  }
}