{
  "address": "0x4662B22516238DC791DF9265C891Eba8505eBAE3",
  "abi": [
    {
      "anonymous": false,
      "inputs": [
        {
          "indexed": true,
          "internalType": "address",
          "name": "from",
          "type": "address"
        },
        {
          "indexed": false,
          "internalType": "uint256",
          "name": "paddingStart",
          "type": "uint256"
        },
        {
          "indexed": false,
          "internalType": "string",
          "name": "value",
          "type": "string"
        },
        {
          "indexed": false,
          "internalType": "uint256",
          "name": "paddingEnd",
          "type": "uint256"
        }
      ],
      "name": "CreateString",
      "type": "event"
    },
    {
      "inputs": [
        {
          "internalType": "string",
          "name": "value",
          "type": "string"
        }
      ],
      "name": "emitString",
      "outputs": [],
      "stateMutability": "nonpayable",
      "type": "function"
    },
    {
      "inputs": [],
      "name": "emitStringNoParam",
      "outputs": [],
      "stateMutability": "nonpayable",
      "type": "function"
    },
    {
      "inputs": [],
      "name": "version",
      "outputs": [
        {
          "internalType": "uint256",
          "name": "",
          "type": "uint256"
        }
      ],
      "stateMutability": "pure",
      "type": "function"
    }
  ],
  "transactionHash": "0x238bf7f19661767647aa31499c298cc231a7621975bdd3717b0cd8ffcccd7de4",
  "args": [],
  "numDeployments": 1,
  "solcInputHash": "a9c23f58543dd03947e77685016d29d2",
  "bytecode": "0x608060405234801561001057600080fd5b50610293806100206000396000f3fe608060405234801561001057600080fd5b50600436106100415760003560e01c80632536f1271461004657806354fd4d501461005b57806382998c5e1461006f575b600080fd5b61005961005436600461014f565b610077565b005b600260405190815260200160405180910390f35b6100596100c3565b336001600160a01b03167f88493ec5a2483b23d1cfd21eb1b9af99685a8f0d2dc009f322e08adf2b76cb5a6103e8836107d06040516100b893929190610200565b60405180910390a250565b604080516103e881526060602082018190526017908201527f456d697465642068617264636f64656420737472696e6700000000000000000060808201526107d081830152905133917f88493ec5a2483b23d1cfd21eb1b9af99685a8f0d2dc009f322e08adf2b76cb5a919081900360a00190a2565b634e487b7160e01b600052604160045260246000fd5b60006020828403121561016157600080fd5b813567ffffffffffffffff8082111561017957600080fd5b818401915084601f83011261018d57600080fd5b81358181111561019f5761019f610139565b604051601f8201601f19908116603f011681019083821181831017156101c7576101c7610139565b816040528281528760208487010111156101e057600080fd5b826020860160208301376000928101602001929092525095945050505050565b83815260006020606081840152845180606085015260005b8181101561023457868101830151858201608001528201610218565b506000608082860101526080601f19601f8301168501019250505082604083015294935050505056fea264697066735822122068a1d9723cd6381a55bf1e342d258c2f93945129d37850b42eedfdc203add0f964736f6c63430008140033",
  "devdoc": {
    "kind": "dev",
    "methods": {},
    "version": 1
  },
  "userdoc": {
    "kind": "user",
    "methods": {},
    "version": 1
  },
  "storageLayout": {
    "storage": [],
    "types": null
  }
}