{
  "address": "0xE8834961e3fa74C5B63d6f8b07F9BD7D07EF56Cd",
  "abi": [
    {
      "inputs": [
        {
          "internalType": "address",
          "name": "_impl",
          "type": "address"
        }
      ],
      "stateMutability": "nonpayable",
      "type": "constructor"
    },
    {
      "inputs": [],
      "name": "InvalidImplementation",
      "type": "error"
    },
    {
      "inputs": [],
      "name": "NotAdmin",
      "type": "error"
    },
    {
      "stateMutability": "payable",
      "type": "fallback"
    },
    {
      "inputs": [],
      "name": "admin",
      "outputs": [
        {
          "internalType": "address",
          "name": "",
          "type": "address"
        }
      ],
      "stateMutability": "view",
      "type": "function"
    },
    {
      "inputs": [
        {
          "internalType": "address",
          "name": "_admin",
          "type": "address"
        }
      ],
      "name": "changeAdmin",
      "outputs": [],
      "stateMutability": "nonpayable",
      "type": "function"
    },
    {
      "inputs": [],
      "name": "implementation",
      "outputs": [
        {
          "internalType": "address",
          "name": "",
          "type": "address"
        }
      ],
      "stateMutability": "view",
      "type": "function"
    },
    {
      "inputs": [
        {
          "internalType": "address",
          "name": "newImplementation",
          "type": "address"
        }
      ],
      "name": "upgradeTo",
      "outputs": [],
      "stateMutability": "nonpayable",
      "type": "function"
    },
    {
      "stateMutability": "payable",
      "type": "receive"
    }
  ],
  "transactionHash": "0x8fbb3dc97fe0ff5ac5b89fd3c253fe1082f84d8011ed88178a43bfa6dc0d2ceb",
  "args": [
    "0xe5A4bBDd5E49eCc530397c062C31e7EA9897d1F4"
  ],
  "numDeployments": 1,
  "solcInputHash": "167d9dc5688b50b9b9718493299cb4ac",
  "bytecode": "0x608060405234801561001057600080fd5b506040516105d63803806105d683398101604081905261002f9161014e565b61003881610047565b610041336100c5565b506101a5565b806001600160a01b03163b6000036100725760405163340aafcd60e11b815260040160405180910390fd5b806100a46100a160017f360894a13ba1a3210667c828492db98dca3e2076cc3735a920a3ca505d382bbd61017e565b90565b80546001600160a01b0319166001600160a01b039290921691909117905550565b6001600160a01b03811661011f5760405162461bcd60e51b815260206004820152601460248201527f61646d696e203d207a65726f2061646472657373000000000000000000000000604482015260640160405180910390fd5b806100a46100a160017fb53127684a568b3173ae13b9f8a6016e243e63b6e8ee1178d6a717850b5d610461017e565b60006020828403121561016057600080fd5b81516001600160a01b038116811461017757600080fd5b9392505050565b8181038181111561019f57634e487b7160e01b600052601160045260246000fd5b92915050565b610422806101b46000396000f3fe6080604052600436106100435760003560e01c80633659cfe61461005a5780635c60da1b1461007a5780638f283970146100ab578063f851a440146100cb57610052565b36610052576100506100e0565b005b6100506100e0565b34801561006657600080fd5b50610050610075366004610395565b6100f2565b34801561008657600080fd5b5061008f610137565b6040516001600160a01b03909116815260200160405180910390f35b3480156100b757600080fd5b506100506100c6366004610395565b61017f565b3480156100d757600080fd5b5061008f6101c1565b6100f06100eb610204565b610246565b565b6100fa61026a565b6001600160a01b0316336001600160a01b03161461012b57604051637bfa4b9f60e01b815260040160405180910390fd5b6101348161029a565b50565b600061014161026a565b6001600160a01b0316336001600160a01b03161461017257604051637bfa4b9f60e01b815260040160405180910390fd5b61017a610204565b905090565b61018761026a565b6001600160a01b0316336001600160a01b0316146101b857604051637bfa4b9f60e01b815260040160405180910390fd5b61013481610315565b60006101cb61026a565b6001600160a01b0316336001600160a01b0316146101fc57604051637bfa4b9f60e01b815260040160405180910390fd5b61017a61026a565b600061023761023460017f360894a13ba1a3210667c828492db98dca3e2076cc3735a920a3ca505d382bbd6103c5565b90565b546001600160a01b0316919050565b3660008037600080366000845af43d6000803e808015610265573d6000f35b3d6000fd5b600061023761023460017fb53127684a568b3173ae13b9f8a6016e243e63b6e8ee1178d6a717850b5d61046103c5565b806001600160a01b03163b6000036102c55760405163340aafcd60e11b815260040160405180910390fd5b806102f461023460017f360894a13ba1a3210667c828492db98dca3e2076cc3735a920a3ca505d382bbd6103c5565b80546001600160a01b0319166001600160a01b039290921691909117905550565b6001600160a01b0381166103665760405162461bcd60e51b815260206004820152601460248201527361646d696e203d207a65726f206164647265737360601b604482015260640160405180910390fd5b806102f461023460017fb53127684a568b3173ae13b9f8a6016e243e63b6e8ee1178d6a717850b5d61046103c5565b6000602082840312156103a757600080fd5b81356001600160a01b03811681146103be57600080fd5b9392505050565b818103818111156103e657634e487b7160e01b600052601160045260246000fd5b9291505056fea2646970667358221220206ce079f5f5eda25f623ace696e2a2a4aaa858c60bf7963a7837b96677bfb8a64736f6c63430008140033",
  "devdoc": {
    "kind": "dev",
    "methods": {
      "admin()": {
        "details": "Returns the current admin address.",
        "returns": {
          "_0": "The current admin address."
        }
      },
      "changeAdmin(address)": {
        "details": "Changes the admin address. Only the current admin can call this function.",
        "params": {
          "_admin": "The new admin address."
        }
      },
      "implementation()": {
        "details": "Returns the current implementation address.",
        "returns": {
          "_0": "The current implementation address."
        }
      },
      "upgradeTo(address)": {
        "details": "Upgrades the implementation to a new address. Only the current admin can call this function.",
        "params": {
          "newImplementation": "The address of the new implementation."
        }
      }
    },
    "title": "Contract used to deploy contracts via proxy",
    "version": 1
  },
  "userdoc": {
    "kind": "user",
    "methods": {},
    "version": 1
  },
  "storageLayout": {
    "storage": [],
    "types": null
  }
}